8=FIXT.1.1|9=101|35=A|34=1|49=BANZAI|52=20190627-14:05:52.459|56=EXEC|98=0|108=5|141=Y|553=testUser|554=mit123|1137=9|10=150|
8=FIXT.1.1|9=77|35=A|34=1|49=EXEC|52=20190627-14:05:52.538|56=BANZAI|98=0|108=5|141=Y|1137=9|10=122|
8=FIXT.1.1|9=123|35=D|34=18|49=BANZAI|52=20190627-14:07:14.433|56=EXEC|11=1|22=1|38=1|40=1|48=1|54=1|55=testSymbol|60=20190627-18:07:14.413|10=057|
8=FIXT.1.1;9=140;35=8;34=18;49=EXEC;52=20190627-14:07:14.495;56=BANZAI;11=1;14=0;17=17=1;22=";37=37=1;38=1990478064;39=0;48=:;54=1;55=testSymbol;150=2;151=1;10=020;
8=FIXT.1.1 9=123 35=D 34=19 49=BANZAI 52=20190627-14:07:14.504 56=EXEC 11=1 22=1 38=1 40=1 48=1 54=1 55=testSymbol 60=20190627-18:07:14.503 10=057
8=FIXT.1.1^9=141^35=8^34=19^49=EXEC^52=20190627-14:07:14.505^56=BANZAI^11=1^14=0^17=17=3^22=T^37=37=3^38=-1118496942^39=0^48=j^54=1^55=testSymbol^150=2^151=1^10=158^
8=FIXT.1.1|9=123|35=D|34=22|49=BANZAI|52=20190627-14:07:26.859|56=EXEC|11=1|22=1|38=1|40=1|48=1|54=1|55=testSymbol|60=20190627-18:07:26.858|10=083|
8=FIXT.1.1^A9=139^A35=8^A34=22^A49=EXEC^A52=20190627-14:07:26.860^A56=BANZAI^A11=1^A14=0^A17=17=5^A22=L^A37=37=5^A38=268737682^A39=0^A48=8^A54=1^A55=testSymbol^A150=2^A151=1^A10=023^A
8=FIXT.1.1|9=123|35=D|34=23|49=BANZAI|52=20190627-14:07:26.867|56=EXEC|11=1|22=1|38=1|40=1|48=1|54=1|55=testSymbol|60=20190627-18:07:26.866|10=082|
8=FIXT.1.1|510=2 9=139|35=8|34=23|49=EXEC|52=20190627-14:07:26.868|56=BANZAI|11=1|14=0|17=17=7|22=0|37=37=7|38=827062359|39=0|48=_|54=1|55=testSymbol|150=2|151=1|10=040|
